:100000000C9434000C9451000C9451000C94510049
:100010000C9451000C9451000C9451000C9451001C
:100020000C9451000C9451000C9451000C9451000C
:100030000C9451000C9451000C9451000C945100FC
:100040000C9451000C9451000C9451000C945100EC
:100050000C9451000C9451000C9451000C945100DC
:100060000C9451000C94510011241FBECFEFD8E026
:10007000DEBFCDBF11E0A0E0B1E0ECEBF9E002C0E3
:1000800005900D92A834B107D9F721E0A8E4B1E0BA
:1000900001C01D92AA34B207E1F70E94AC010C9492
:1000A000DC040C9400008091000124E08202C00175
:1000B000112480930001E9B1E3708E2B809300013D
:1000C000E82FEF700E2E000CFF0BEF5FFE4F9081BC
:1000D00080914901890F82301CF48093490102C04C
:1000E00010924901809149018F3F14F41092490107
:1000F00080914901082E000C990B08950F931F93CE
:10010000CF93DF93CDB7DEB764970FB6F894DEBF19
:100110000FBECDBF009709F45BC0209148012B3082
:1001200070F0253F28F4982F990F980F892F0EC053
:100130002D3F60F0181619064CF48FEF08C02330DD
:1001400028F497FF03C01092480103C0820F8093E8
:1001500048012091480134E6239FC00111246FEF2C
:1001600070E00E94CA018E010F5F1F4F2F3F29F4DC
:100170007F936F9381E191E00BC0211105C07F93C4
:100180006F9383E291E004C07F936F9385E391E0E6
:100190009F938F931F930F930E94F2010F900F90E4
:1001A0000F900F900F900F90809148018093B300B3
:1001B00060E080E00E949D01C8010E946A018FEF0B
:1001C00099EF20E0815090402040E1F700C000000E
:1001D00064960FB6F894DEBF0FBECDBFDF91CF910E
:1001E0001F910F91089542989BB1282F207F9F70F7
:1001F000922B9BB9409AEFE9FFE03197F1F700C0ED
:1002000000004098EFE9FFE03197F1F700C00000EF
:100210002BB1F0E18F9FC0011124922F9F70892B89
:100220008BB9409A8FE99FE00197F1F700C0000079
:100230004098EFE3FFE13197F1F700C00000089527
:1002400081E00E94F3008FE99FE00197F1F700C081
:10025000000080E80E94F3008FE99FE00197F1F72A
:1002600000C0000008958AB1806F8AB987B18760A5
:1002700087B98FE59AEE0197F1F700C00000419829
:1002800088B188B942988BB18F7080628BB9409ADF
:100290008FE99FE00197F1F700C0000040988FE3DD
:1002A0009FE10197F1F700C0000088E20E94F3008F
:1002B0008EE00E94F30086E00E94F3000E9420017D
:1002C00080E80E94F3008FE39FE10197F1F700C0FF
:1002D00000000895FC01DF018081882369F1429AC2
:1002E0009BB18191807F9F70982B9BB9409A8FE939
:1002F0009FE00197F1F700C0000040988FE99FE070
:100300000197F1F700C000008BB19C9140E194028D
:10031000900111248F70282B2BB9409A8FE99FE010
:100320000197F1F700C0000040988FE39FE101972B
:10033000F1F700C00000CFCF089520E4829FC001F4
:1003400011248068860F0E94F3008FE891E00197E6
:10035000F1F700C0000008958AB18C7F8AB98BB193
:1003600083608BB9239A8091B00083688093B0003A
:100370008091B10081608093B1001092B3000E941F
:10038000330160E080E00E949D010E9453000E94C2
:100390007E00FBCF97FB072E16F4009407D077FD65
:1003A00009D00E94DE0107FC05D03EF490958195AE
:1003B0009F4F0895709561957F4F0895AA1BBB1BB1
:1003C00051E107C0AA1FBB1FA617B70710F0A61B55
:1003D000B70B881F991F5A95A9F780959095BC0176
:1003E000CD010895AEE0B0E0E8EFF1E00C94B30485
:1003F0000D891E8986E08C831A8309838FEF9FE71E
:100400009E838D83AE01475E5F4F6F89788DCE01ED
:1004100001960E941402EF81F885E00FF11F10820F
:100420002E96E4E00C94CF04ABE0B0E0EAE1F2E019
:100430000C94A5046C017B018A01FC0117821682D1
:10044000838181FFCCC1CE0101963C01F6019381ED
:10045000F70193FD859193FF81917F01882309F432
:10046000BAC1853239F493FD859193FF81917F0163
:10047000853229F4B60190E00E940B04E7CF912C5D
:10048000212C312CFFE1F315D8F08B3279F038F4C0
:10049000803279F08332A1F4232D20611DC08D328A
:1004A00061F0803369F4232D216016C0832D8260B2
:1004B000382EE32DE4603E2E2AC0F32DF8601DC0D7
:1004C00037FC2DC020ED280F2A3040F08E32B9F4D1
:1004D00036FC81C1232D2064322E19C036FE06C0A1
:1004E0008AE0989E200D1124922E11C0EAE02E9EE3
:1004F000200D1124222EF32DF0623F2E08C08C36E1
:1005000021F4832D8068382E02C0883641F4F7012B
:1005100093FD859193FF81917F018111B3CF982F36
:100520009F7D9554933028F40C5F1F4F9FE3998370
:100530000DC0833631F0833771F0833509F059C02F
:1005400021C0F801808189830E5F1F4F8824839426
:10055000912C530113C02801F2E04F0E511CF801F9
:10056000A080B18036FE03C0692D70E002C06FEF3D
:100570007FEFC5010E9400044C018201F32DFF773B
:100580003F2E16C0280122E0420E511CF801A08027
:10059000B18036FE03C0692D70E002C06FEF7FEFBF
:1005A000C5010E94F5034C01F32DF0683F2E820136
:1005B00033FC1BC0822D90E088169906B0F4B6017A
:1005C00080E290E00E940B042A94F4CFF50137FCFE
:1005D000859137FE81915F01B60190E00E940B0486
:1005E00021102A9421E0821A91088114910471F754
:1005F000E8C0843611F0893641F5F80137FE07C0AE
:1006000060817181828193810C5F1F4F08C060817E
:100610007181072E000C880B990B0E5F1F4FF32D75
:10062000FF763F2E97FF09C0909580957095619554
:100630007F4F8F4F9F4FF0683F2E2AE030E0A3019D
:100640000E944704882E861845C0853731F4232D33
:100650002F7EB22E2AE030E025C0932D997FB92E4F
:100660008F36C1F018F4883579F0B5C0803719F0AD
:10067000883721F0B0C0E92FE061BE2EB4FE0DC076
:10068000FB2DF460BF2E09C034FE0AC0292F26605E
:10069000B22E06C028E030E005C020E130E002C004
:1006A00020E132E0F801B7FE07C0608171818281EC
:1006B00093810C5F1F4F06C06081718180E090E0E4
:1006C0000E5F1F4FA3010E944704882E8618FB2D42
:1006D000FF773F2E36FE0DC0232D2E7FA22E8914CC
:1006E00058F434FE0BC032FC09C0832D8E7EA82E38
:1006F00005C0B82CA32C03C0B82C01C0B92CA4FE93
:100700000FC0FE01E80DF11D8081803321F49A2D88
:10071000997EA92E09C0A2FE06C0B394B39404C06A
:100720008A2D867809F0B394A3FC11C0A0FE06C000
:10073000B21488F4280C922C9B180EC0B21460F4EA
:10074000B60180E290E00E940B04B394F7CFB2149C
:1007500018F42B1802C0982C212CA4FE10C0B6014E
:1007600080E390E00E940B04A2FE17C0A1FC03C02E
:1007700088E790E002C088E590E0B6010CC08A2DC1
:10078000867859F0A1FE02C08BE201C080E2A7FC8E
:100790008DE2B60190E00E940B04891438F4B60192
:1007A00080E390E00E940B049A94F7CF8A94F301BF
:1007B000E80DF11D8081B60190E00E940B048110CC
:1007C000F5CF222009F442CEB60180E290E00E94EB
:1007D0000B042A94F6CFF6018681978102C08FEF31
:1007E0009FEF2B96E2E10C94C104FC01059061504F
:1007F00070400110D8F7809590958E0F9F1F089537
:10080000FC016150704001900110D8F780959095DF
:100810008E0F9F1F08950F931F93CF93DF93FB01BC
:10082000238121FD03C08FEF9FEF2CC022FF16C054
:1008300046815781248135814217530744F4A081B2
:10084000B1819D012F5F3F4F318320838C9326819F
:1008500037812F5F3F4F3783268314C08B01EC0114
:10086000FB010084F185E02D0995892BE1F6D80183
:1008700016968D919C911797019617969C938E933F
:100880001697CE01DF91CF911F910F910895FA0134
:10089000AA27283051F1203181F1E8946F936E7FBF
:1008A0006E5F7F4F8F4F9F4FAF4FB1E03ED0B4E0B0
:1008B0003CD0670F781F891F9A1FA11D680F791FF1
:1008C0008A1F911DA11D6A0F711D811D911DA11D02
:1008D00020D009F468943F912AE0269F1124301912
:1008E000305D3193DEF6CF010895462F4770405DAD
:1008F0004193B3E00FD0C9F7F6CF462F4F70405D5C
:100900004A3318F0495D31FD4052419302D0A9F7B6
:10091000EACFB4E0A6959795879577956795BA95B0
:10092000C9F700976105710508959B01AC010A2E76
:1009300006945795479537952795BA95C9F7620F4D
:10094000731F841F951FA01D08952F923F924F92F1
:100950005F926F927F928F929F92AF92BF92CF924F
:10096000DF92EF92FF920F931F93CF93DF93CDB758
:10097000DEB7CA1BDB0B0FB6F894DEBF0FBECDBFD0
:1009800009942A88398848885F846E847D848C84A1
:100990009B84AA84B984C884DF80EE80FD800C81AA
:1009A0001B81AA81B981CE0FD11D0FB6F894DEBF8D
:0C09B0000FBECDBFED010895F894FFCFFD
:1009BC000300FF0100010000FFFF0000010001FF28
:1009CC0000447574793A20256420204D61782020EC
:1009DC00202000447574793A20256420204D696EDE
:1009EC002020202000447574793A20256420202092
:0809FC00202020202020000033
:00000001FF
